:04000000B7EF05F061
:10080000003738392F3435362A3132332D0D303D0B
:0F0810002B0050726573732061204B65790000D7
:10082000F00E936EF00E8A6E8150F00B286EF00E73
:100830002818D8A41EEF04F020EF04F014EF04F001
:100840008150F00B286EF00E2818D8A42AEF04F07F
:100850002CEF04F014EF04F0820E166EDE0EE82E7C
:10086000FED7162EFCD7F00E8A6E8150F00B286E44
:10087000F00E2818D8B43FEF04F041EF04F035EF44
:1008800004F08150F00B286EF00E2818D8B44BEF0E
:1008900004F04DEF04F035EF04F0340E166EF20E56
:1008A000E82EFED7162EFCD78150F00B286EFE0ED8
:1008B0008A6E8150F00B286E28C026F0F00E2818A2
:1008C000D8B465EF04F067EF04F079EF04F0000EA0
:1008D000276E6EEF04F08150F00B266EF00E261896
:1008E000D8A475EF04F077EF04F06BEF04F0DDEFC0
:1008F00004F0FD0E8A6E8150F00B286E28C026F0A1
:10090000F00E2818D8B487EF04F089EF04F09BEFBD
:1009100004F0010E276E90EF04F08150F00B266E6C
:10092000F00E2618D8A497EF04F099EF04F08DEF9D
:1009300004F0DDEF04F0FB0E8A6E8150F00B286EA0
:1009400028C026F0F00E2818D8B4A9EF04F0ABEFB9
:1009500004F0BDEF04F0020E276EB2EF04F08150F8
:10096000F00B266EF00E2618D8A4B9EF04F0BBEFFA
:1009700004F0AFEF04F0DDEF04F0F70E8A6E815063
:10098000F00B286E28C026F0F00E2818D8B4CBEF54
:1009900004F0CDEF04F057EF04F0030E276ED4EF10
:1009A00004F08150F00B266EF00E2618D8A4DBEF71
:1009B00004F0DDEF04F0D1EF04F0E00E2818D8A425
:1009C000E4EF04F0E6EF04F0F1EF04F02750040D3B
:1009D000010EF324D96E000EF420DA6EDF5022EF00
:1009E00005F0D00E2818D8A4F8EF04F0FAEF04F0C0
:1009F00005EF05F02750040D020EF324D96E000E0A
:100A0000F420DA6EDF5022EF05F0B00E2818D8A4DB
:100A10000CEF05F00EEF05F019EF05F02750040D6F
:100A2000030EF324D96E000EF420DA6EDF5022EFAD
:100A300005F02750040D040EF324D96E000EF420A7
:100A4000DA6EDF501200176E17C016F0F00E161691
:100A50008C500F0B16108C6E8C808C8200F08C9258
:100A6000030E166E980EE82EFED7162EFCD717C072
:100A700016F0163AF00E16168C500F0B16108C6EE0
:100A80008C8200F08C92080E166ECA0EE82EFED7ED
:100A9000162EFCD71200176E17C016F0F00E1616A1
:100AA0008C500F0B16108C6E8C908C8200F08C92F8
:100AB000030E166E980EE82EFED7162EFCD717C022
:100AC00016F0163AF00E16168C500F0B16108C6E90
:100AD0008C8200F08C92080E166ECA0EE82EFED79D
:100AE000162EFCD71200720ED36EF19EEFEC05F0BD
:100AF000000E1A6E120E1B6E080E1C6E000E97EC86
:100B000005F0C00E4BEC05F010EC04F01F6E2A0E41
:100B100023EC05F0200E2524D96EDA6A000EDA22C5
:100B20001FC0DFFF252A84EF05F000EF00F01D6EE7
:100B3000020E1D609EEF05F0A0EF05F0A9EF05F095
:100B40001A500F0B80091E6E1E504BEC05F0B0EFD3
:100B500005F01A500F0BC0091E6E1E504BEC05F02D
:100B60001BC018F01CC019F0D4EC05F01200120ED6
:100B7000F66E0C0EF76E000EF86E00EE01F010EE41
:100B800015F00900F5CFEEFFE550E150FAE100EE77
:100B900020F0090EEE6AE806FDE1000EF86E080E80
:100BA000F76E000173EF05F0E0EF05F018C0F6FFF7
:100BB00019C0F7FF0800F55023EC05F0184A192A70
:100BC00018C0F6FF19C0F7FF0800F5500009D8A4B7
:100BD000ECEF05F0EEEF05F0D6EF05F01200000E99
:100BE000956E270E186EF50EE82EFED7182EFCD740
:100BF00000F0020E4BEC05F0280E4BEC05F0010E58
:100C00004BEC05F00C0E4BEC05F0060E4BEC05F032
:100C100012003738392F3435362A3132332D20300F
:070C20003D2B3230323100A0
:020000040020DA
:08000000FFFFFFFFFFFFFFFF00
:020000040030CA
:0E00000000091F1EFF8181FF0FC00FE00F409F
:00000001FF
