:040000008EEF10F07F
:10080000003738392F3435362A3132332D0D303D0B
:100810002B0054656D706572617475726120433A86
:100820000025303264252500253375252500253027
:10083000326443006C783A00313800483A00543A48
:10084000000042C0D9FF43C0DAFFDECFF6FFDDCFA4
:10085000F7FFF86A0800F550250AD8A432EF04F033
:1008600034EF04F00EEF06F042C0D9FF43C0DAFFC8
:10087000DE2A000EDD22000E0001BC6F000EBB6FF1
:10088000BBC0BFF0BCC0C0F0BD69BE69000E5B6EEE
:10089000000E5A6E98EF04F00001BF8142C0D9FFEC
:1008A00043C0DAFFDE2A000EDD2298EF04F00001DB
:1008B000BF834EEF04F00001BF854EEF04F000014E
:1008C000BF874EEF04F00001BF894EEF04F0000E29
:1008D0005B6E010E5A6E98EF04F042C0D9FF43C020
:1008E000DAFFDECFF6FFDDCFF7FFF86A0800F5503C
:1008F000466E476A4750000AD8B481EF04F067EFAC
:1009000004F04650200AD8B45FEF04F0030AD8B4CC
:1009100063EF04F0080AD8B45BEF04F0060AD8B419
:100920004CEF04F01D0AD8B457EF04F067EF04F061
:100930005A505B10D8B49FEF04F0A1EF04F06DEFB4
:1009400004F00001BFA1A7EF04F0A9EF04F0AAEFA3
:1009500004F0BF9342C0D9FF43C0DAFFDECFF6FFF9
:10096000DDCFF7FFF86A0800F5502A0AD8A4BBEFDC
:1009700004F0BDEF04F0E6EF04F042C0D9FF43C03D
:10098000DAFFDE2A000EDD2244C0D9FF45C0DAFFBF
:10099000DFCF46F0020EDE26DFCF47F0000EDD226D
:1009A00046C0D9FF47C0DAFFDECFBBF0DDCFBCF0D9
:1009B000BCBFDFEF04F0DDEF04F01DEF05F0BF81F9
:1009C000BB6DBC1FD8B0BC2B1DEF05F042C0D9FFDA
:1009D00043C0DAFFDECF08F0DDCF09F063EC0CF0A6
:1009E00008C0BBF009C0BCF0FDEF04F042C0D9FF65
:1009F00043C0DAFFDE2A000EDD22D00E466EFF0E67
:100A0000476E42C0D9FF43C0DAFFDECFF6FFDDCF2D
:100A1000F7FFF86A0800F550486E496A46504826C4
:100A200047504922495009E10A0E485CD8A01BEF03
:100A300005F01DEF05F0F6EF04F042C0D9FF43C00A
:100A4000DAFFDECFF6FFDDCFF7FFF86A0800F550DA
:100A5000640AD8B42EEF05F030EF05F043EF05F04F
:100A600042C0D9FF43C0DAFFDECFF6FFDDCFF7FF8C
:100A7000F86A0800F550690AD8A441EF05F043EF81
:100A800005F083EF05F042C0D9FF43C0DAFFDE2A4C
:100A9000000EDD2244C0D9FF45C0DAFFDFCF46F0AB
:100AA000020EDE26DFCF47F0000EDD2246C0D9FF62
:100AB00047C0DAFFDECF4AF0DDCF4BF0000E4BBE71
:100AC000FF0E4C6E4D6E4E6E4F6E506E516E40C0AE
:100AD0001CF041C01DF04AC01EF04BC01FF04CC0BE
:100AE00020F04DC021F04EC022F04FC023F050C086
:100AF00024F051C025F02BEC06F01CC040F01DC0C6
:100B000041F02AEF06F042C0D9FF43C0DAFFDECF42
:100B1000F6FFDDCFF7FFF86A0800F550750AD8A494
:100B200094EF05F096EF05F0D7EF05F042C0D9FF3E
:100B300043C0DAFFDE2A000EDD2244C0D9FF45C0E3
:100B4000DAFFDFCF46F0020EDE26DFCF47F0000EE1
:100B5000DD2246C0D9FF47C0DAFFDECF48F0DDCF47
:100B600049F048C052F049C053F0546A556A566A79
:100B7000576A586A596A40C01CF041C01DF052C003
:100B80001EF053C01FF054C020F055C021F056C0D5
:100B900022F057C023F058C024F059C025F0F8ECDB
:100BA00008F01CC040F01DC041F02AEF06F042C022
:100BB000D9FF43C0DAFFDECFF6FFDDCFF7FFF86ADB
:100BC0000800F550250AD8A4E8EF05F0EAEF05F093
:100BD00001EF06F042C0D9FF43C0DAFFDE2A000E63
:100BE000DD22000E026E250E016E40C003F041C0F2
:100BF00004F0F3EC0DF0000E416E010E406E2AEF92
:100C000006F042C0D9FF43C0DAFFDE2A000EDD2223
:100C1000000E416E000E406E2AEF06F042C0D9FF72
:100C200043C0DAFFDECFF6FFDDCFF7FFF86A08003A
:100C3000F550016E026A40C003F041C004F0F3ECCD
:100C40000DF042C0D9FF43C0DAFFDE2A000EDD22DC
:100C5000FBEF05F012001EC036F01FC037F020C0B9
:100C600038F021C039F022C03AF023C03BF024C054
:100C70003CF025C03DF03DBE40EF06F043EF06F0EE
:100C8000010E44EF06F0000E346E356A3450351014
:100C9000D8B44DEF06F04FEF06F05FEF06F03D1EC3
:100CA0003C1E3B1E3A1E391E381E371E366C000E87
:100CB0003722382239223A223B223C223D220001AF
:100CC000BEBF65EF06F067EF06F068EF06F0BF9372
:100CD000BEBF75EF06F0BE5106E1BD05D8B073EF9B
:100CE00006F075EF06F07BEF06F0000E316E010E98
:100CF000306E7FEF06F0BDC030F0BEC031F0BBC03B
:100D000032F0BCC033F034503510D8A48AEF06F06E
:100D10008CEF06F093EF06F0BFA591EF06F093EF8E
:100D200006F096EF06F03206D8A03306000E3F6EAE
:100D30001F0E3E6E000E0101606F1BEF07F03E06B6
:100D4000D8A03F06410E3E24D96E010E3F20DA6E38
:100D500036C001F037C002F038C003F039C004F0EB
:100D60003AC005F03BC006F03CC007F03DC008F0BB
:100D70000A0E096E000E0A6E000E0B6E000E0C6E4F
:100D8000000E0D6E000E0E6E000E0F6E000E106E39
:100D9000B1EC0BF001C026F002C027F003C028F030
:100DA00004C029F005C02AF006C02BF007C02CF0C3
:100DB00008C02DF026C013F028C014F020EC13F06A
:100DC0001350300FDF6E3006D8A031063206D8A09F
:100DD000330636C001F037C002F038C003F039C026
:100DE00004F03AC005F03BC006F03CC007F03DC03F
:100DF00008F00A0E096E000E0A6E000E0B6E000E51
:100E00000C6E000E0D6E000E0E6E000E0F6E000EBC
:100E1000106EEDEC0AF001C036F002C037F003C0EE
:100E200038F004C039F005C03AF006C03BF007C006
:100E30003CF008C03DF03FBE26EF07F03F5008E110
:100E40003E04D8A026EF07F028EF07F059EF07F08F
:100E500036503710381039103A103B103C103D1006
:100E6000D8A435EF07F037EF07F09FEF06F031BE5B
:100E700044EF07F0315006E13004D8B042EF07F0FC
:100E800044EF07F09FEF06F033BE4FEF07F033500B
:100E900008E13204D8A04FEF07F051EF07F059EF07
:100EA00007F00001BFB357EF07F059EF07F09FEFCE
:100EB00006F034503510D8A460EF07F062EF07F069
:100EC0006AEF07F00001BFA568EF07F06AEF07F0CF
:100ED00088EF07F03E06D8A03F0634503510D8A45E
:100EE00074EF07F076EF07F07CEF07F0000E2F6E3F
:100EF0002B0E2E6E80EF07F0000E2F6E2D0E2E6E35
:100F0000410E3E24D96E010E3F20DA6E2EC0DFFF67
:100F10001CC011F01DC012F0410E3E24136E010ED4
:100F20003F20146E32C015F033C016F058EC0EF0AE
:100F300011C01CF012C01DF01200000E036E000E56
:100F4000046E000E96EC12F0010E036E000E046E9D
:100F5000010E96EC12F0720ED36EF19E77EC13F048
:100F6000E80E0E6E030E0F6E000E106E000E116E68
:100F7000BFEC10F0000E066E120E076E080E086E23
:100F8000000E78EC11F0C00E49EC12F035EC14F0C4
:100F9000BDEC13F0BAEC12F001500210D8B4D3EF4C
:100FA00007F0D5EF07F07FEF08F0F0EC10F000014C
:100FB000D46FF0EC10F00001D36FF0EC10F00001F2
:100FC000D26FF0EC10F00001D16FF0EC10F00001E6
:100FD000D06F000E066E3E0E076E080E086E000EF5
:100FE00078EC11F0000E066E3B0E076E080E086ED0
:100FF0000A0E78EC11F0020E066E340E076E080E23
:10100000086E000E78EC11F0D60E0001E66F000EAF
:10101000E76F2E0EE86F080EE96FD2C0EAF0EB6BB7
:10102000CFEC11F00001D251F96FFA6BFB6BF9C0F4
:1010300003F0FAC004F0FBC005F029EC10F0D60E66
:101040000001E66F000EE76F210EE86F080EE96FF2
:10105000D4C0EAF0EB6BCFEC11F0000E066ED60EAA
:10106000076E000E086E0D0E78EC11F0D60E000122
:10107000E66F000EE76F280EE86F080EE96F000EAE
:10108000EB6F000EEA6FCFEC11F0020E066ED60E7B
:10109000076E000E086E040E78EC11F00001D051BE
:1010A000F96FFA6BD351D4C0FBF0FC6BFB27000E39
:1010B000FC23D251FB27000EFC23D151FB27000E4D
:1010C000FC23F951FB1909E1FA51FC19D8B46BEF73
:1010D00008F06DEF08F076EF08F0020E036E000ED8
:1010E000046E0F0E91EC13F099EF08F0020E036EF0
:1010F000010E046E0F0E91EC13F099EF08F03CEC2A
:1011000014F0000E066E380E076E080E086E020E02
:1011100078EC11F0020E036E000E046E0F0E91ECCF
:1011200013F0030E026EE80E016E71EC12F03CEC4F
:1011300014F00001D451D203F3CFC1F0F4CFC2F0C8
:10114000230ED465A6EF08F0A8EF08F0C2EF08F070
:10115000370ED461AEEF08F0B0EF08F0C2EF08F040
:10116000120ED265B6EF08F0B8EF08F0C2EF08F043
:10117000150ED261BEEF08F0C0EF08F0C2EF08F024
:10118000C6EF08F027EC14F0EAEF08F0C2BFD2EF88
:1011900008F02B0EC15D030EC259D8A0D2EF08F0A3
:1011A000D4EF08F0E4EF08F0C2BFE2EF08F0B10EB0
:1011B000C15D030EC259D8B0E0EF08F0E2EF08F0CD
:1011C000E4EF08F0E8EF08F020EC14F0EAEF08F0A4
:1011D0002EEC14F0FAEC09F0BBEC0EF0030E026EEC
:1011E000E80E016E71EC12F0C8EF07F000EF00F0AE
:1011F0000001BEBFFEEF08F000EF09F001EF09F0BB
:10120000BF93BEBF0EEF09F0BE5106E1BD05D8B0D9
:101210000CEF09F00EEF09F014EF09F0000E2F6E3D
:10122000010E2E6E18EF09F0BDC02EF0BEC02FF0DB
:10123000BBC030F0BCC031F01EC032F01FC033F074
:1012400020C034F021C035F022C036F023C037F082
:1012500024C038F025C039F0000E3B6E1F0E3A6EE8
:10126000000E0101606FABEF09F03A06D8A03B0613
:10127000410E3A24D96E010E3B20DA6E32C001F0E5
:1012800033C002F034C003F035C004F036C005F0BE
:1012900037C006F038C007F039C008F00A0E096EF2
:1012A000000E0A6E000E0B6E000E0C6E000E0D6E20
:1012B000000E0E6E000E0F6E000E106E8BEC0DF019
:1012C00001C026F002C027F003C028F004C029F0B6
:1012D00005C02AF006C02BF007C02CF008C02DF086
:1012E0002650300FDF6E2E06D8A02F063006D8A06D
:1012F000310632C001F033C002F034C003F035C013
:1013000004F036C005F037C006F038C007F039C029
:1013100008F00A0E096E000E0A6E000E0B6E000E2B
:101320000C6E000E0D6E000E0E6E000E0F6E000E97
:10133000106E13EC0DF001C032F002C033F003C0A8
:1013400034F004C035F005C036F006C037F007C0F1
:1013500038F008C039F03A503B10D8B4B2EF09F079
:10136000B4EF09F0E5EF09F03250331034103510C6
:101370003610371038103910D8A4C1EF09F0C3EF78
:1013800009F035EF09F02FBED0EF09F02F5006E13C
:101390002E04D8B0CEEF09F0D0EF09F035EF09F008
:1013A00031BEDBEF09F0315008E13004D8A0DBEFAB
:1013B00009F0DDEF09F0E5EF09F00001BFB3E3EF5D
:1013C00009F0E5EF09F035EF09F01CC011F01DC080
:1013D00012F0410E3A24136E010E3B20146E30C001
:1013E00015F031C016F058EC0EF011C01CF012C010
:1013F0001DF012000EEC14F0D00ECDEC13F0000E28
:10140000CDEC13F017EC14F0D10ECDEC13F0D9ECB9
:1014100013F00001CD6FEFEC13F0D9EC13F00001E5
:10142000CE6FEFEC13F0D9EC13F00001CF6FEFECBF
:1014300013F0D9EC13F0EFEC13F0D9EC13F000013A
:10144000CA6FEFEC13F0D9EC13F00001CB6FEFECA7
:1014500013F0D9EC13F00001CC6FE4EC13F005ECC1
:1014600014F00001CD51FAEC13F00001CD6FCE5114
:10147000FAEC13F00001CE6FCF51FAEC13F000013B
:10148000CF6FCA51FAEC13F00001CA6FCB51FAECDE
:1014900013F00001CB6FCC51FAEC13F00001CC6FCC
:1014A000CFC001F0026A000E046E0A0E036E1DEC3E
:1014B0000FF00150300F0001A56FCFC001F0026A9C
:1014C000000E046E0A0E036E7FEC0FF00150300F19
:1014D0000001A66FCEC001F0026A000E046E0A0E73
:1014E000036E1DEC0FF00150300F0001A86FCEC04D
:1014F00001F0026A000E046E0A0E036E7FEC0FF01C
:101500000150300F0001A96FCDC001F0026A000E3A
:10151000046E0A0E036E1DEC0FF00150300F000137
:10152000AB6FCDC001F0026A000E046E0A0E036EAE
:101530007FEC0FF00150300F0001AC6FCAC001F01A
:10154000026A000E046E0A0E036E1DEC0FF00150CD
:10155000300F0001846FCAC001F0026A000E046EF1
:101560000A0E036E7FEC0FF00150300F0001856F03
:10157000CBC001F0026A000E046E0A0E036E1DEC71
:101580000FF00150300F0001876FCBC001F0026AED
:10159000000E046E0A0E036E7FEC0FF00150300F48
:1015A0000001886FCCC001F0026A000E046E0A0EC2
:1015B000036E1DEC0FF00150300F00018C6FCCC09A
:1015C00001F0026A000E046E0A0E036E7FEC0FF04B
:1015D0000150300F00018D6F1200000E126E10BE10
:1015E000F6EF0AF0F4EF0AF008EF0BF0101E0F1EF2
:1015F0000E1E0D1E0C1E0B1E0A1E096C000E0A226A
:101600000B220C220D220E220F221022010E126E2E
:1016100008BE0FEF0BF00DEF0BF021EF0BF0081EE3
:10162000071E061E051E041E031E021E016C000E70
:101630000222032204220522062207220822010E8A
:10164000121A20EE13F0070EDE6AE806FDE20950DA
:101650000A100B100C100D100E100F101010D8B433
:1016600034EF0BF036EF0BF088EF0BF0010E116E3C
:1016700044EF0BF0D89009360A360B360C360D368F
:101680000E360F361036112A10AE49EF0BF04BEF25
:101690000BF03AEF0BF0D890133614361536163699
:1016A0001736183619361A360950015C0A50025896
:1016B0000B5003580C5004580D5005580E50065846
:1016C0000F50075810500858D8A069EF0BF06BEF77
:1016D0000BF07CEF0BF00950015E0A50025A0B50E0
:1016E000035A0C50045A0D50055A0E50065A0F500A
:1016F000075A1050085A1380D89010320F320E3209
:101700000D320C320B320A320932112E4BEF0BF034
:101710001250D8B48EEF0BF090EF0BF0A0EF0BF05F
:101720001A1E191E181E171E161E151E141E136CC7
:10173000000E1422152216221722182219221A220C
:1017400013C001F014C002F015C003F016C004F07D
:1017500017C005F018C006F019C007F01AC008F04D
:101760001200000E126E08BEBAEF0BF0B8EF0BF0CD
:10177000CCEF0BF0081E071E061E051E041E031EDE
:10178000021E016C000E0222032204220522062200
:1017900007220822010E126E10BED3EF0BF0D1EF1C
:1017A0000BF0E3EF0BF0101E0F1E0E1E0D1E0C1E95
:1017B0000B1E0A1E096C000E0A220B220C220D229F
:1017C0000E220F22102209500A100B100C100D10BF
:1017D0000E100F101010D8B4F0EF0BF0F2EF0BF06A
:1017E0003AEF0CF0010E116E00EF0CF0D8900936B4
:1017F0000A360B360C360D360E360F361036112AD9
:1018000010AE05EF0CF007EF0CF0F6EF0BF00950FF
:10181000015C0A5002580B5003580C5004580D50EC
:1018200005580E5006580F50075810500858D8A0A9
:101830001CEF0CF01EEF0CF02EEF0CF00950015EC7
:101840000A50025A0B50035A0C50045A0D50055AB4
:101850000E50065A0F50075A1050085AD89010329E
:101860000F320E320D320C320B320A320932112E87
:1018700007EF0CF01250D8B440EF0CF042EF0CF030
:1018800052EF0CF0081E071E061E051E041E031E46
:10189000021E016C000E02220322042205220622EF
:1018A0000722082201C001F002C002F003C003F0C9
:1018B00004C004F005C005F006C006F007C007F03C
:1018C00008C008F01200000E116E000E106E000E1F
:1018D0000F6E000E0E6E6FEF0CF0084A092A08C05A
:1018E000F6FF09C0F7FFF86A0800F550200AD8B4DF
:1018F0007CEF0CF07EEF0CF06DEF0CF0F70E0A6E43
:10190000FF0E0B6E08C0F6FF09C0F7FFF86A08006B
:10191000F5500C6E0D6A0A500C260B500D220D501E
:1019200009E1050E0C5CD8A098EF0CF09AEF0CF0D2
:101930006DEF0CF0A4EF0CF0000E0F6E010E0E6EAA
:10194000084A092ADBEF0CF008C0F6FF09C0F7FFD0
:10195000F86A0800F5500A6E0B6A0B50000AD8B4FA
:10196000B4EF0CF0DBEF0CF00A502B0AD8B4A0EF68
:101970000CF0060AD8B49CEF0CF0DBEF0CF010C0B2
:1019800001F011C002F0000E046E0A0E036EAAEC04
:1019900013F008C0F6FF09C0F7FFF86A0800F55019
:1019A000015E000E025A300E0124106E000E02205D
:1019B000116EA0EF0CF0D00E0A6EFF0E0B6E08C079
:1019C000F6FF09C0F7FFF86A0800F5500C6E0D6AC3
:1019D0000A500C260B500D220D5009E10A0E0C5C2A
:1019E000D8A0F5EF0CF0F7EF0CF0BFEF0CF00E50B5
:1019F0000F10D8A4FEEF0CF000EF0DF00EEF0DF07D
:101A000010C00AF011C00BF00A1E0B1E0A4A0B2A66
:101A10000AC008F00BC009F012EF0DF010C008F07A
:101A200011C009F0120020EE11F0070EDE6AE80680
:101A3000FDE209500A100B100C100D100E100F10C3
:101A40001010D8B426EF0DF028EF0DF07AEF0DF05E
:101A5000010E196E36EF0DF0D89009360A360B36A6
:101A60000C360D360E360F361036192A10AE3BEFF7
:101A70000DF03DEF0DF02CEF0DF0D8901136123631
:101A80001336143615361636173618360950015CDB
:101A90000A5002580B5003580C5004580D5005586A
:101AA0000E5006580F50075810500858D8A05BEF3A
:101AB0000DF05DEF0DF06EEF0DF00950015E0A5074
:101AC000025A0B50035A0C50045A0D50055A0E502E
:101AD000065A0F50075A1050085A1180D8901032E9
:101AE0000F320E320D320C320B320A320932192EFD
:101AF0003DEF0DF011C001F012C002F013C003F071
:101B000014C004F015C005F016C006F017C007F0A9
:101B100018C008F0120009500A100B100C100D101C
:101B20000E100F101010D8B498EF0DF09AEF0DF0C2
:101B3000E2EF0DF0010E116EA8EF0DF0D89009360E
:101B40000A360B360C360D360E360F361036112A85
:101B500010AEADEF0DF0AFEF0DF09EEF0DF00950B0
:101B6000015C0A5002580B5003580C5004580D5099
:101B700005580E5006580F50075810500858D8A056
:101B8000C4EF0DF0C6EF0DF0D6EF0DF00950015E79
:101B90000A50025A0B50035A0C50045A0D50055A61
:101BA0000E50065A0F50075A1050085AD89010324B
:101BB0000F320E320D320C320B320A320932112E34
:101BC000AFEF0DF001C001F002C002F003C003F05E
:101BD00004C004F005C005F006C006F007C007F019
:101BE00008C008F0120003500410D8B4FAEF0DF04A
:101BF000FCEF0DF005EF0EF003500410D8A403EF36
:101C00000EF005EF0EF00AEF0EF0015040EC14F06C
:101C100057EF0EF020EE09F00350D9260450DA22D7
:101C2000DE50DE10D8B417EF0EF019EF0EF034EFDF
:101C30000EF020EE09F00350D9260450DA2210EEFF
:101C400003F00350E1260450E222DE50E65CE65049
:101C5000800A096EDE50800A0958D8B032EF0EF0C3
:101C600034EF0EF057EF0EF020EE03F00350D926BC
:101C70000450DA22DECF05F0DDCF06F003C0D9FF35
:101C800004C0DAFFDECF07F0DDCF08F005500724EF
:101C9000D96E06500820DA6E01C0DFFF20EE03F097
:101CA0000350D9260450DA22DE2A000EDD2212006B
:101CB0000001BFA15EEF0EF060EF0EF06AEF0EF0D4
:101CC00013C00AF014C00BF011C00CF012C00DF0DC
:101CD000DDEC12F016BE6FEF0EF071EF0EF077EF45
:101CE0000EF015C01AF016C01BF07BEF0EF0000EC0
:101CF0001B6E000E1A6E000E196E000E186E8DEF20
:101D00000EF0000E026E200E016E11C003F012C024
:101D100004F0F3EC0DF0184A192A1A50185C195007
:101D2000800A176E1B50800A1758D8A09AEF0EF041
:101D30009CEF0EF081EF0EF00001BFB1A2EF0EF0AC
:101D4000A4EF0EF0AEEF0EF013C00AF014C00BF0CB
:101D500011C00CF012C00DF0DDEC12F013C001F058
:101D600014C002F05CEC13F01A500124116E1B50E9
:101D70000220126E12000001C351C411D8A4C3EF97
:101D80000EF0C5EF0EF0CAEF0EF01EEC11F00001E0
:101D9000C34BC42B84C060F085C061F087C063F082
:101DA00088C064F08CC068F08DC069F0A5C06BF08D
:101DB000A6C06CF0A8C06EF0A9C06FF0D4C001F04E
:101DC000026A000E046E0A0E036E1DEC0FF0015045
:101DD000300F0001716FD4C001F0026A000E046E72
:101DE0000A0E036E7FEC0FF00150300F0001726F8E
:101DF000D2C001F0026A000E046E0A0E036E1DECE2
:101E00000FF00150300F0001746FD2C001F0026A70
:101E1000000E046E0A0E036E7FEC0FF00150300FBF
:101E20000001756F300E776F300E786F300E796F5E
:101E3000C8C07BF04BEC11F01200000E066E04BE21
:101E400026EF0FF024EF0FF02CEF0FF0036C041EC1
:101E5000D8B0042A010E066E02BE33EF0FF031EF48
:101E60000FF039EF0FF0016C021ED8B0022A010EFC
:101E7000061A000E086E000E076E03500410D8B448
:101E800044EF0FF046EF0FF06EEF0FF0010E056E0E
:101E90004EEF0FF0D89003360436052A04AE53EF08
:101EA0000FF055EF0FF04AEF0FF0D89007360836D5
:101EB0000350015C04500258D8A061EF0FF063EFAB
:101EC0000FF068EF0FF00350015E0450025A0780D4
:101ED000D89004320332052E55EF0FF00650D8B4D7
:101EE00074EF0FF076EF0FF07AEF0FF0076C081E2B
:101EF000D8B0082A07C001F008C002F01200000E96
:101F0000066E02BE88EF0FF086EF0FF08EEF0FF037
:101F1000016C021ED8B0022A010E066E04BE95EFB7
:101F20000FF093EF0FF099EF0FF0036C041ED8B091
:101F3000042A03500410D8B4A0EF0FF0A2EF0FF062
:101F4000C6EF0FF0010E056EAAEF0FF0D890033622
:101F50000436052A04AEAFEF0FF0B1EF0FF0A6EF95
:101F60000FF00350015C04500258D8A0BAEF0FF0F4
:101F7000BCEF0FF0C0EF0FF00350015E0450025AA7
:101F8000D89004320332052EB1EF0FF00650D8B4CA
:101F9000CCEF0FF0CEEF0FF0D2EF0FF0016C021E7E
:101FA000D8B0022A01C001F002C002F01200000EF7
:101FB000096E000E0A6E000E0B6E000E0C6E0550C0
:101FC000061007100810D8B4E8EF0FF0EAEF0FF092
:101FD00020EF10F0010E0D6EF4EF0FF0D8900536E3
:101FE0000636073608360D2A08AEF9EF0FF0FBEF7C
:101FF0000FF0EEEF0FF0D89009360A360B360C369C
:102000000550015C06500258075003580850045808
:10201000D8A00DEF10F00FEF10F018EF10F00550F2
:10202000015E0650025A0750035A0850045A0980AC
:10203000D89008320732063205320D2EFBEF0FF032
:1020400009C001F00AC002F00BC003F00CC004F09C
:10205000120043EF10F003C0F6FF04C0F7FF05C005
:10206000F8FFF8BA03D00800F55005D0F6CFE1FF2D
:10207000F7CFE2FFE75021EC12F0010E0326000E2D
:102080000422000E052203C0F6FF04C0F7FF05C0BE
:10209000F8FFF8BA03D00800F55005D0F6CFE1FFFD
:1020A000F7CFE2FFE7500009D8A459EF10F05BEF3B
:1020B00010F02BEF10F01200E2C05CF0E3C05DF016
:1020C000000E0001BA6F000EB96F7AEF10F0E0C099
:1020D00040F0E1C041F05C0E426E000E436EE4C081
:1020E00044F0E5C045F021EC04F040500001B92770
:1020F0004150BA235CC0F6FF5DC0F7FFF86A0800E4
:10210000F5500009D8A487EF10F089EF10F067EFC1
:1021100010F0B9C0E0F0BAC0E1F01200FE0EF66EA9
:10212000250EF76E000EF86E01EE00F010EE41F095
:102130000900F5CFEEFFE550E150FAE14A0EF66EE8
:10214000230EF76E000EF86E00EE60F010EE54F005
:102150000900F5CFEEFFE550E150FAE101EE41F064
:10216000200EEE6AE806FDE100EEB4F02C0EEE6AF9
:10217000E806FDE15F6A5E6A00019DEF07F093806B
:102180009382C79CC78EC68AC650F00B0809C66EDC
:10219000000EC56E000E016E120E026E7A0E036EF8
:1021A000000E046E0EC012F00FC013F010C014F039
:1021B00011C015F0020ED8901236133614361536AB
:1021C000E82EDBEF10F012C005F013C006F014C0CB
:1021D00007F015C008F0D7EC0FF00104C86E12002C
:1021E000000E026E000E016E80A6F9EF10F0FBEFFC
:1021F00010F0F4EF10F0140EE82EFED780A603EFD7
:1022000011F005EF11F009EF11F0D88002360CEF54
:1022100011F002500224026E80B611EF11F013EF9C
:1022200011F00CEF11F0012A070E01641AEF11F002
:102230001CEF11F0F4EF10F002501200949CAC9CD3
:10224000AC8AAC98AC94B896AB8E0C0EAF6E000E08
:10225000026E000E016EACA230EF11F032EF11F001
:102260002BEF11F0000E0124D96E010E0220DA6E60
:10227000DF50AD6E014A022A02BE48EF11F0025053
:1022800009E1400E015CD8A048EF11F04AEF11F0CF
:102290002BEF11F01200949CAC9CAC8AAC98AC94DF
:1022A000B896AB8E0C0EAF6E000E026E000E016E75
:1022B000ACA25DEF11F05FEF11F058EF11F0600E7E
:1022C0000124D96E000E0220DA6EDF50AD6E014A95
:1022D000022A02BE75EF11F0025009E11D0E015CE9
:1022E000D8A075EF11F077EF11F058EF11F0120050
:1022F000096E020E09607FEF11F081EF11F08AEF95
:1023000011F006500F0B80090A6E0A5049EC12F0CA
:1023100091EF11F006500F0BC0090A6E0A5049ECFC
:1023200012F007C003F008C004F0056A035004105F
:10233000D8B4A2EF11F0070E0864A1EF11F0A2EFDC
:1023400011F0058A29EC10F0120044442F4D4D2F56
:10235000323041412C48483A4D4D2C48482C545479
:102360002C4C4C4C2C530D00444154453A203030F9
:102370002F30302F32303030003738392F34353667
:102380002A3132332D20303D2B54494D453A2030EF
:10239000303A30303A303000323032310001EA0E1B
:1023A0000001EC6F000EED6FE6C0EEF0E7C0EFF05D
:1023B000000EF26F000EF16F000EF86F000EF76F57
:1023C000EE0EE06F000EE16FE8C0E2F0E9C0E3F06E
:1023D000EC0EE46F000EE56F5CEC10F00001F151C3
:1023E000E625D96EF251E721DA6E000EDF6E12009B
:1023F000010E076E200E01180210D8B402EF12F081
:1024000004EF12F01DEF12F0F70E036EFF0E046ED4
:1024100001C005F002C006F0035005260450062254
:10242000065009E1050E055CD8A019EF12F01BEF6C
:1024300012F01DEF12F0000E076E07C001F0026AE5
:102440001200026E02C001F0F00E01168C500F0B4C
:1024500001108C6E8C808C8200F08C92030E016EC9
:10246000980EE82EFED7012EFCD702C001F0013AEB
:10247000F00E01168C500F0B01108C6E8C8200F048
:102480008C92080E016ECA0EE82EFED7012EFCD7E4
:102490001200026E02C001F0F00E01168C500F0BFC
:1024A00001108C6E8C908C8200F08C92030E016E69
:1024B000980EE82EFED7012EFCD702C001F0013A9B
:1024C000F00E01168C500F0B01108C6E8C8200F0F8
:1024D0008C92080E016ECA0EE82EFED7012EFCD794
:1024E0001200000E046E000E036E8AEF12F0000E52
:1024F000066E000E056E054A062A065009E1A50E75
:10250000055CD8A086EF12F088EF12F07BEF12F096
:10251000034A042A0150035C02500458D8A093EFE8
:1025200012F095EF12F077EF12F01200056E080E20
:1025300005609DEF12F09FEF12F0B9EF12F0055019
:10254000080DF350400F49EC12F0000E066E0650D5
:102550000324D96E000E0420DA6EDF5021EC12F055
:10256000062A070E0664B7EF12F0B9EF12F0A7EFD4
:1025700012F01200000E046E000E036E80B6C3EF60
:1025800012F0C5EF12F0D8EF12F0350EE82EFED79C
:1025900000F080A6CEEF12F0D0EF12F0D8EF12F0DC
:1025A000350EE82EFED700F0000E046E010E036E0D
:1025B00003C001F004C002F01200000E106E000E05
:1025C0000F6EEEEF12F00EC001F0026A0CC003F0C5
:1025D0000DC004F0F3EC0DF00F4A102A0F500A243E
:1025E000D96E10500B20DA6EDF500E6E0E50D8A44C
:1025F000FCEF12F0FEEF12F0E3EF12F0120046656E
:102600006368612C486F72612C48756D6564616404
:1026100052656C61746976612825292C54656D704A
:10262000657261747572612843292C4C757A28256E
:0F263000292C416476657274656E6369610D00D3
:1026400014BE2DEF13F0145006E11304D8B02BEF95
:1026500013F02DEF13F03BEF13F013C015F014C07F
:1026600016F0151E161E154A162A15C013F016C0B0
:1026700014F03FEF13F013C013F014C014F0120065
:10268000D00E036EFF0E046E01C005F002C006F00E
:10269000035005260450062206500AE10A0E055C86
:1026A000D8A055EF13F058EF13F0010E59EF13F0C7
:1026B000000E016E026A120001C003F002C004F0B5
:1026C00064EF13F0014A022A01C0D9FF02C0DAFF09
:1026D000DF50D8A46EEF13F070EF13F062EF13F039
:1026E0000350015C016E04500258026E1200000E8D
:1026F000956E270E036EF50EE82EFED7032EFCD73F
:1027000000F0020E49EC12F0280E49EC12F0010E16
:1027100049EC12F00C0E49EC12F0060E49EC12F0E6
:102720001200056E0350D8A498EF13F09AEF13F03F
:10273000A1EF13F005500F0B800949EC12F0A6EF42
:1027400013F005500F0BC00949EC12F0045021ECB6
:1027500012F0120001500302F3CF05F0F4CF06F09F
:1027600001500402F350062602500302F3500626DD
:1027700005C001F006C002F01200929689962F0E55
:10278000016EC00EE82EFED7012EFCD789861A0EE8
:10279000E82EFED700D092861200016E9E9601C0F0
:1027A000C9FF9EA6D6EF13F0D8EF13F0D1EF13F0C8
:1027B00012009E96C5869EA6E0EF13F0E2EF13F09E
:1027C000DBEF13F0C95012009E96C58AC5889EA6FD
:1027D000ECEF13F0EEEF13F0E7EF13F012009E961C
:1027E000C59AC5889EA6F7EF13F0F9EF13F0F2EF44
:1027F00013F01200026E02C001F00F0E0116023833
:102800000F0B0A0DF35001241200C584C5B40BEF61
:1028100014F00DEF14F006EF14F01200C580C5B0EF
:1028200014EF14F016EF14F00FEF14F01200C5823D
:10283000C5B21DEF14F01FEF14F018EF14F01200E2
:102840008A948A868A98590E0001C86F12008A8479
:102850008A968A98520E0001C86F12008A948A964E
:102860008A88470E0001C86F12009690969296943F
:102870004E0E0001C86F1200010E49EC12F012005A
:02288000120044
:020000040020DA
:08000000FFFFFFFFFFFFFFFF00
:020000040030CA
:0E00000000091F1EFF8181FF0FC00FE00F409F
:00000001FF
